:200000000080202013110000C70A0000C70A0000000000000000000000000000000000005A
:20002000000000000000000000000000C70A00000000000000000000C70A0000C70A00004D
:20004000C70A0000C70A0000C70A0000C70A0000C70A0000C70A0000C70A0000C70A000018
:2000600000000000C70A0000C70A00000000000000000000F10F0000C70A0000250C0000DC
:20008000C70A0000C70A0000C70A0000C70A0000C70A0000C70A000000000000000000007A
:2000A000C70A0000C70A00000000000000000000C70A000000000000C70A0000C70A00002B
:2000C000F0B583B0BB4D68790002A9794618B41D0321204600F0A2FE481C0328019000D101
:2000E00000200290B14FB249022C00D3A5E0019803282AD138BA010BAF4A0A40000DF021AF
:20010000884380188108AD4A11401040800008184108AB4A1140104040000818A9490988F9
:2001200088420BD1A348817B0902427B8918827C1202407C1218A44800F0DCFD03B0F0BDBC
:20014000AD1C0298801E0290D4D0287802090007000E10188308332213401040800018184D
:20016000440855231C401840400224020019784006B24400002E00D54C4020B264000028E5
:2001800000D54C4020B26400002800D54C4020B26400002800D54C4020B26400002800D54D
:2001A0004C4020B26400002800D54C4020B26400002800D54C4020B26700002800D54F4070
:2001C0000298012896D0687804090007000E20188408144010408000201842081A401840D8
:2001E000400212028018784003B24200002B00D54A4010B25200002800D54A4010B2520029
:20020000002800D54A4010B25200002800D54A4010B25200002800D54A4010B252000028E5
:2002200000D54A4010B25200002800D54A4010B25700002884D54F4082E70298331ADB1D53
:200240005C4D03E0ED1CDB1E00D150E72C7826092407240E3619B208332422402640B600FA
:2002600092195008552630403240520200021018784002B24700002A00D54F4038B27F00F6
:20028000002800D54F4038B27F00002800D54F4038B27F00002800D54F4038B27F00002857
:2002A00000D54F4038B27F00002800D54F4038B27F00002800D54F4038B27F00002800D58A
:2002C0004F40687802090007000E10188208224020408000101842083240304040021202F1
:2002E0008018784002B24700002A00D54F4038B27F00002800D54F4038B27F00002800D5CA
:200300004F4038B27F00002800D54F4038B27F00002800D54F4038B27F00002800D54F406F
:2003200038B27F00002800D54F4038B27F00002800D54F40A87802090007000E10188208E1
:200340002240204080001018420832403040400212028018784002B24400002A00D54C40DE
:2003600020B26400002800D54C4020B26400002800D54C4020B26400002800D54C4020B26E
:200380006400002800D54C4020B26400002800D54C4020B26400002800D54C4020B26700B9
:2003A000002800D44EE74F404CE7C046FFFF00000580000094012020F0F0000033330000A6
:2003C00055550000820120203F110000F0B5FFB08CB0049315460646909800908A91346823
:2003E000204600F072FE2018002189910290844244D20022859285A803920273641C0F4611
:20040000601E0078002834D0252806D034602946049A90477F1C641CF2E70398C0430190FC
:200420008997601C03903060207885A90873732809D18AA989AA2846049B00F021F88999A9
:20044000039C019A11E005AC85A98AAA204600F035F8024620462946009B9847411C019A4C
:20046000114600D0C1198991039C481C0298BED100E03A4610467FB00CB0F0BD0A46F9E7B7
:20048000F8B504460868051D0D600668002E11D0009414461D46304600F017FE0746206848
:2004A000C01920600024BC4207DA305D0099A847641CF8E7002021469847F8BDF0B585B077
:2004C00001920E4604467F208000251800270397FF210291FE312022204600F0EFFD0495CF
:2004E0006F70307B252852D06B1C782813D0642811D06F280FD0632820D1019A1068011D69
:2005000011600168C8B247424741029A1046FC302018297014E01D4603A904AA3046019BC4
:2005200000F03BF803980499002803D0481E2D220A7000E00846029A2B4601E02846029A10
:20054000191A0029254601DC611A4D1C411C530000262846324600F039FD002F02D0411CD3
:20056000067000E00146A14206D8481E611A491C202200F0A3FD2670291B2022204600F093
:200580009DFD204600F0A1FDC01905B0F0BD00206070252020700120F7E7F8B514460D4674
:2005A0000646077B194600F014F8317B642904D1002802D50121296040426F2F01D00A213E
:2005C00000E00821782F00D11021224600F012F8F8BD007B642805D06F2803D0782801D09B
:2005E000702804D10868021D0A600068704700207047C046F8B514460D460646002804D1F6
:200600002068411E2160302101700A4F002E0DD03046294600F010F801466943711A795C1C
:200620002268531E236011700646EFE7206800F04CFDF8BD5D11000080B5102903D0082943
:2006400003D1C00880BD000980BD00F0E7FB80BDF0B581B06F48704C704921600021A180A7
:20066000A1716F4D00E0C91C625C13091207120E9B189E083322164013409B00F618770855
:2006800055231F401E4076023F02F6196E4037B27500002F00D545402EB26D00002E00D578
:2006A00045402EB26D00002E00D545402EB26D00002E00D545402EB26D00002E00D5454036
:2006C0002EB26D00002E00D545402EB26D00002E00D545402FB26E00002F00D54640062968
:2006E00075D065186F783C093F073F0EE419A70817401440A4003C1967081F401C40640299
:200700003F02E419744027B26600002F00D5464034B27600002C00D5464034B27600002CB3
:2007200000D5464034B27600002C00D5464034B27600002C00D5464034B27600002C00D53B
:20074000464034B27600002C00D5464034B27600002C00D54640AC7825092407240E2C1959
:20076000A50815401440A200AA1854081C401A4052022302D218724013B25200002B00D581
:200780004240254C13B25200002B00D5424013B25200002B00D5424013B25200002B00D51D
:2007A000424013B25200002B00D5424013B25200002B00D5424013B25200002B00D54240EC
:2007C00013B25500002B00D44DE745404BE730BA010B144A0A40000DF0218843801881086D
:2007E000114A114010408000081841080F4A1140104040000818010AE1712072092120463B
:2008000000F0A2F80020208220606060A060E06001B0F0BD0580000070012020A5032002AE
:20082000FFFF0000F0F000003333000055550000F0B581B03D4F39780A2966D87944097907
:2008400049008F44052D161C0B353922640F430038490870A52858D101205EE03549087182
:2008600005205AE032490C88254609353149485530E030498870202818D103204DE02D49D2
:20088000C870012812D1042047E02D490A88284B1B889A4244D2274BD318D871501C42E085
:2008A00024494870032801D1022036E0002034E020494871062030E01E49887107223A701F
:2008C000497909024018401E19492CE01848048825460935184817491E26324600F008FC22
:2008E0001448314600F0F8FB13496018007A0002495D4018114908801148002101800C48C3
:20090000018039700F480121017001B0F0BD08490988084A891808720920387001B0F0BDE7
:20092000082038700020088001B0F0BD920120208E012020B20120209401202082012020B4
:200940008C01202093012020F0B581B0002941D04A1E93B2344C5C43630C03245C43121BB8
:20096000521C93B2032B01D0144600E000242D4A032B009101D10B4629E000250B46214628
:2009800006E09B1E9761801CAD1CACB2B4421ED006781768FF0705D01768FF0702D017686B
:2009A000FF07F6D19661471C01262E43B4B28EB2B4420AD03F781468E407E2D01468E407CB
:2009C000DFD01468E407F6D1DBE75B1E38460099032906D201B0F0BDDB1E9161C01C1904A2
:2009E000F8D001781468E40705D01468E40702D01468E407F6D1916141781468E40705D02C
:200A00001468E40702D01468E407F6D1916181781468E407E0D01468E407DDD01468E407F2
:200A2000F6D1D9E708111040ABAA0000002A49D084468B071CD1830722D1102A08D370B42F
:200A4000103A78C978C0103AFBD270BC103238D0042A2CD3082A05D30C2A01D308C908C06C
:200A600008C908C008C908C092072AD0920F22E00B780370491C401C521E22D08B07F7D19B
:200A8000C30714D18307D8D0121F12D308C903801B0C4380001D121FF8D20AE008C90370DB
:200AA0001B0A43701B0A83701B0AC370001D121FF4D2121D05D00B780370491C401C521EAF
:200AC000F9D160467047FEE7F8B5451C00780023082B32D02F78C2070CD16A780F24144076
:200AE000E41C122C0BD102242E57F4B2002E08D4EE1C0EE06D1C4A1C0F7011461AE0AE1C00
:200B000008E02E1DED7800957F252C40009DED012C1912343D0112095219094DAA420ED09E
:200B2000D243002C05D08D5C4F1C0D70641E3946F7E7354640085B1CCAE72846C5E7F8BD35
:200B4000FF0F000010B51549154C204600F0A3FA1449204600F0FCF8134801680322D203AB
:200B6000914301600169114A0A40911C016141690B220A4334218A4342614168012211401C
:200B8000436893435918416009490B6894021C430C6001681143016010BDC0468211000018
:200BA000008010406E110000009110400000FFFF2890104010B51549154C204600F06BFAC0
:200BC0001449204600F0C4F8134801680322D203914301600169114A0A40911C01614169EB
:200BE0000B220A4334218A434261416801221140436893435918416009490B6894021C434C
:200C00000C6001681143016010BDC046841100000000104078110000001110400000FFFFAA
:200C20002810104010B515480068C0B20B2823D11348026800211348435E002B1CD4D2B288
:200C400003885B0407D401239C0303880D2A08D1234319460FE00A2A0DD102880A4911437A
:200C600009E0641E2340094CE2540288521C02800288802A00D3018010BDC0462090104046
:200C800024911040900120200080FFFFF00020208446830706D0002A29D001700130013AA6
:200CA0008307F8D1042A1CD30906090E0B0219430B041943082A10D30B00102A09D370B470
:200CC0000F24161B22400C000D003AC0103EFCD870BC082A01D30AC0083A042A01D302C017
:200CE000043A002A03D0013A8154013AFCD260467047704783B01EB505AC0EC401900F481B
:200D0000006880470E4A9069401C0DD005A902910C48009018320C4B01A8FFF757FB044619
:200D20000A480068804704E00848006880470020C44320461EBC02BC03B0084784012020E3
:200D40000000202001110000F91000008801202070B511221302C218C4580125AC43C450E3
:200D60000C888D7825438C882C43C558084E2E40084D2540AC19C4508879CB790343087A6E
:200D8000184351687E23994318400818506070BDE798FDFF1867000010B5C824204600F06C
:200DA0005DF8FFF755FC204600F058F8094C0A480121490603C46E2020700921083C204620
:200DC000FFF7C2FD0020208220606060A060E06010BDC04670012020A503200110B50948B9
:200DE00009494160094A5160094B5960094C616009490160116019602160102000F072F930
:200E000010BDC04600080A40030000B100280A400088104000081040010000261CB50A0055
:200E200017D000230124E407A04200D20400944201D95200FBE790425B41904200D3801A4F
:200E4000914201D25208F6E719000200080011001CBD01000020FFF74CFF1CBDB0B50E49B1
:200E60007D22120242430B68262006E00D1F2D68E41A6419201890420DD21C460B68A342BC
:200E800005D10B68A34202D10B68A342F6D09C42ECD9E41AEEE7B0BD18E000E00C48002103
:200EA00001600C48014608390A680323DB4313400B60016801229143016001681302994366
:200EC0000160001F016812030A4302607047C04608030B4008010B4010B50178002915D0B2
:200EE00000220B4B05E0601C9961521C617800290AD004461868C007F5D01868C007F2D076
:200F00001868C007F6D1EEE790B210BD002010BD0891104070B50A480A4C84420CD00A4D43
:200F20000A4EB54208D02A686968501C12789200A25890470835F4E700BF00BF70BDC04605
:200F4000C4110000B8110000CC110000DC11000000F02AF8084800F0E0F80C20FFF71CFFC2
:200F6000064C20780128FDD100202070FFF7A8F83220FFF773FFF4E72011000093012020B0
:200F8000084880F3088800BF00BF00F0C4F8002801D0FFF7BFFF0020FFF7DAFF012000F027
:200FA000B3F8C0460080202080B500F04FF80120C103044A1160044B1960400310601860BD
:200FC00080BDC04680E200E000E100E0B0B504460020002B08D0D2B20D782570954204D0B0
:200FE000641C491C5B1EF7D1B0BD601CB0BD704780B505480068C0B20B2804D103480068A7
:20100000C0B2FFF715FC80BD201010402411104006490A68D20705D00A68D20702D00A6817
:20102000D207F6D1C2B28A617047C046089110400548042101601F214160002181600168EC
:2010400005220A430260704710E000E080B5FFF7C5FE00F009F8FFF721FFFFF773FDFFF7E2
:20106000A9FDFFF7E5FF80BD034882218160034AC2600160426070474C80424082000400E7
:2010800003228058002805D0401E4A1C00230B701146F7E7704710B50122120383180C78EC
:2010A0009C604978815010BD80B50B4603214258C11D184600F01CF880BD00000B4611466C
:2010C0001A4680B5FFF7E4FD80BD0021425C491C002AFBD1481E70470A46002180B5FFF794
:2010E000D7FD80BD811E091F00BFFCD27047000080B5FFF79BFC80BD80B5FFF789FF80BDE5
:2011000080B5FFF7E9FE80BD00F001F8FEE700BF704735E7704701207047002070470000BA
:2011200077616974696E6720666F722053444D313820737461727420776F726B210D006425
:201140006973203D2025646D6D09202C20737472656E677468203D2025640D0A003031323F
:20116000333435363738396162636465660000001800000000300000000018000000003010
:0811800000000400080000005B
:20118800005500000F0112014001018F012202C01502030F01240440FF000004BF02017F43
:2011A8007E06013F8201EF0F003318B5FFF00000C90A0000A91000008110000002000000D4
:1811C8003C0000008811000000002020C4110000940120200000000050
:00000001FF
