:020000040000FA
:10000000E0022020D5000000D9000000DB00000045
:1000100000000000000000000000000000000000E0
:10002000000000000000000000000000DD000000F3
:100030000000000000000000DF000000E100000000
:10004000E3000000E3000000E3000000E300000024
:10005000E3000000E3000000E3000000E300000014
:1000600000000000E3000000E300000000000000CA
:10007000000000009D0D0000E3000000E90C0000FE
:10008000E3000000E3000000E3000000E3000000E4
:10009000E3000000E300000000000000000000009A
:1000A000E3000000E300000000000000000000008A
:1000B000E300000000000000E3000000E300000097
:1000C0000348854600F04CFA00480047B110000094
:1000D000E002202003480047FEE7FEE7FEE7FEE7D8
:1000E000FEE7FEE7C100000003460B439B0703D079
:1000F00009E008C9121F08C0042AFAD203E00B78ED
:100100000370401C491C521EF9D27047D2B201E064
:100110000270401C491EFBD270470022F6E710B562
:1001200013460A4604461946FFF7F0FF204610BD65
:1001300070B50446002903D000202022012310E0DE
:10014000002801D00020C043C046C0460DE025462F
:10015000D5408D4205D30D469540641B1D46954004
:1001600040191546521E002DF1DC214670BDF0B538
:100170001FB40646002082B005464024019100903D
:100180001BE0019922460F46304600F00BFA049A14
:10019000059B801A994110D310461946224600F05B
:1001A000F1F9361A8F410197224601200021009F64
:1001B00000F0E8F938184D4100902046641E0028F0
:1001C000DFDC019B00982946324607B0F0BD0000F5
:1001D000F0B507460846584087B0C00F0490480065
:1001E0000E46590040084908BC1A884105D23846D5
:1001F00031461E4617460B4602465800400810433B
:100200004CD0300D039040055900400D490D05902C
:10021000401A0290402872DA18030121000B0905E8
:100220000843019004980092002805D00199524299
:100230000020884100920190029840210A1A0199F9
:10024000009800F09FF905460C466B4607CB00F07E
:10025000BAF9C0197141039A0E0D0023D717564001
:100260001A467A40164344D0049A002A2DD0029AA6
:10027000012A039A15DC1205C01A914101263605A0
:10028000001C7141D20F059ED20700930192029685
:100290002A46234600F0B7F907B0F0BD384631468C
:1002A000FAE71605224A0F46B218C01AB7410121D3
:1002B0000905001C4F4100187F411146181879416B
:1002C000E20F10436D19644113E0E2076D08154316
:1002D0006408C2071443039A01261205C01A91410B
:1002E0003605001C7141CE07400830434908C0184C
:1002F00051412A46234600F079F9CDE7FFE70498FB
:1003000001224000C117121A00238B410498314684
:10031000C417381AA141EEE730B40124E407634062
:1003200030BC55E730B40124E407614030BC4FE7EE
:100330000000E0FFF0B51FB488B00B9909980024C5
:1003400048400999C00F490049080991C0070B9915
:100350000090490049080B9109990898A64608435E
:100360001CD00B990A98084318D009980124400022
:10037000420D4800410D099824050003000B20435D
:1003800009900B980003000B20430B9050181C4958
:100390004018002201901446104605E00020014656
:1003A0000DB0F0BD032801DA034600E003239C46AC
:1003B000C11A0AAE0AE05F0008ADED5B4F00F75BC3
:1003C0007D430027AA187C41491C5B1E6145F2DD74
:1003D000410004AB5A522104120C0A43240C401C65
:1003E0000828DFDB01980290009970460191009087
:1003F000059B049A0799069800F005F9D0E70000DC
:100400000DFCFFFFF0B50C465C4085B0E40FE4073F
:1004100003944C000026640859009446490802469B
:100420000296224321D062460A431ED06200570D35
:100430004A000E032303550D012402462C492405CE
:10044000781B1B0B360B4018234326436146009054
:100450001C46501AB44103D30098401C009002E09F
:10046000921800985B41002803DA0020014605B08D
:10047000F0BD0020012109050746864611E06446CB
:100480001D46141BB54106D36546521BB341744645
:1004900007430C43A646CD07400849082843921855
:1004A0005B4105460D43EAD11046184313D0604620
:1004B000194650407140084306D06046101AB341B7
:1004C00006D20122002306E000220123DB0702E01E
:1004D0000122D2435310009874460105381C614133
:1004E000029C039D0019694100F080F8BFE70000FD
:1004F000FD0300004A0009030123090B1B051943F2
:100500000A4B10B5520D9A4202DA0020014610BD86
:10051000064B34339A4203DC9A1A00F043F810BDBC
:10052000034BD21800F02EF810BD0000FF030000AE
:10053000CDFBFFFF10B5002904DB0124E407404296
:100540008C412146002B04DB1C460123DB07524271
:10055000A341994200D1904210BD0000000000006C
:10056000064C0125064E05E0E36807CC2B430C3C06
:1005700098471034B442F7D3FFF7A6FD6C1B000078
:100580008C1B000010B5202A04DB0146203A914064
:10059000002010BD914020239C1A0346E3401943DC
:1005A000904010BD10B5202A04DB0846203AD04008
:1005B000002110BD0B46D340D0402024A21A914008
:1005C0000843194610BD10B5202A06DBCB17084694
:1005D000203A1041C1170B4306E00B461341D040AF
:1005E0002024A21A91400843194610BD10B5002BD3
:1005F00008DA0024401C614192185B411A4301D182
:100600004008400010BDF0B51FB482B005460C0094
:1006100003D0084600F0FCFD02E000F0F9FD2030B8
:100620000246009021462846FFF7ACFF049B059A3E
:1006300004460F4618431143084314D0184610438C
:100640001BD0009840210A1A18460599FFF7AAFF07
:1006500005460E46009A05990498FFF793FF084354
:1006600005D0012004E02046394607B0F0BD002047
:10067000C11705430E432C43374300990E98630579
:10068000401A7905E40A00220C43FD0A0A3002D51B
:1006900000200146E9E70105101969410C9C0D9DF8
:1006A00000196941FFF7A2FFDFE782B001900199CD
:1006B000881E001F00BFFCD2009002B0704784B0BB
:1006C00003900291019203980068009000980199AC
:1006D0008843009000980299019A114008430399B9
:1006E000086004B0704784B00390029101920398AF
:1006F0000068009000980199884300900098029942
:10070000019A114008430399086004B07047000043
:1007100081B0009000990120C2025248885001B077
:100720007047C04682B00190009100980349084389
:1007300001998900084A885002B07047800004007F
:1007400082B00190009100988021084301998900AE
:10075000014A885002B070470480424081B0009046
:100760000099674A6748885001B070470649086891
:100770000122904308607047034908680122120271
:10078000904308607047C04608010B400349086861
:1007900001221203104308607047C04604010B4059
:1007A00081B001466846017000780249086001B0D6
:1007B0007047C04608030B4080B582B0014601A8CF
:1007C0000170017802480322FFF779FF02B080BD73
:1007D00000010B4009490868052210430860704772
:1007E00081B000900549042008600098401E04492B
:1007F000086004490020086001B0704710E000E084
:1008000014E000E018E000E081B0009000991120B1
:100810000202885801239843885001B0704781B084
:100820000090009911200202885801231843885033
:1008300001B0704782B001900091009B0199034A7A
:1008400088581843885002B07047C04628100000EE
:1008500081B0009000990120C2020248885001B086
:100860007047C0460100002681B0009000988121A9
:1008700049014058C0B201B07047000080B582B055
:10088000019000910198FFF7BFFF01981121090223
:100890004018009A11889378194392881143084AA6
:1008A000FFF721FF01982A494018009A9179D379DE
:1008B0001943127A11437E22FFF715FF02B080BD63
:1008C0001867020081B00090009803494058012148
:1008D000084001B07047C0460811000081B0009088
:1008E000009802494058C0B201B07047241100007E
:1008F00081B000900099024A0248885001B07047C8
:1009000004080000030000B180B584B00390029198
:10091000019203980B49401802990B4AFFF7CFFE4A
:1009200003980A49401801993F22FFF7C8FE03992E
:10093000074A8818895801221140FFF7C0FE04B009
:1009400080BDC04610110000FFFF00001411000020
:100950000411000082B00190009100980078019984
:10096000044A885000984078019901221203885067
:1009700002B070470810000080B582B0019000916D
:10098000019811210902401800990322D203FFF7B0
:1009900096FE02B080BD82B001906846017000787A
:1009A000019989225201885002B0704780B586B003
:1009B00005A908706948007804900A2800D9CAE09F
:1009C0000498810001A040588746C046F9090000FC
:1009D000130A0000350A0000570A0000790A0000D7
:1009E000890A0000990A0000B70A0000EB0A00001B
:1009F000010B0000170B000005995A4801700078A0
:100A0000A52805D1FFE755490878401C0870FFE785
:100A1000A1E00599534841704078032805D1FFE7CC
:100A20004E490878401C087003E04C4900200870CB
:100A3000FFE790E005994B4881708078202805D128
:100A4000FFE746490878401C087003E0434900204E
:100A50000870FFE77FE005994248C170C07801281F
:100A600005D1FFE73D490878401C087003E03B4989
:100A700000200870FFE76EE005983A490871374991
:100A80000878401C087066E005983649487133497B
:100A90000878401C08705EE00598324988712F4A3A
:100AA0001078401C10704879000289794018401E67
:100AB0002B4908804FE02E48008829490988884240
:100AC0000ADAFFE705982A490A88264BD218D0711E
:100AD0000888401C088007E020490878401C0870FE
:100AE000234900200880FFE735E005981C49098864
:100AF0001C4A8918087219490878401C08702AE0B5
:100B0000059817490988174A8918487213490878BF
:100B1000401C0870FFE714480390124902911E22FE
:100B20000192FFF7E1FA01990298FFF7F6FA039AAA
:100B30000B4908888218107A0002527A80180B4AF2
:100B400010800B4A00201080088004490870094971
:100B500001200870FFE706B080BDC0464A00202093
:100B600048002020280020200A0020200800202003
:100B7000460020204B00202080B582B001A90870DB
:100B8000C820009000F038FA00F008FB009800F050
:100B900033FA00F0E5FA02B080BD80B582B01420CF
:100BA00002210191FFF7CCFD01991520FFF7BAFD55
:100BB00001991220FFF7C4FD01991320FFF7B2FD40
:100BC00002B080BD80B582B000200190FFF7E8FD43
:100BD0000198FFF7F1FDFFF7C9FDFFF7CDFDFFF726
:100BE000D5FD02B080BD80B52020FFF7F9FDFFF7ED
:100BF000F1FD80BD80B582B00D4964480190FFF7DA
:100C0000A9FE01980B49FFF739FE01980021FFF773
:100C1000B3FE019802210B22FFF776FE0198012115
:100C20008902FFF707FE0198FFF7F9FD02B080BDCA
:100C3000141B0000161B000080B582B00D497948D6
:100C40000190FFF787FE01980B49FFF717FE019807
:100C50000021FFF791FE019802210B22FFF754FEBD
:100C6000019801218902FFF7E5FD0198FFF7D7FD03
:100C700002B080BD201B0000221B000080B500F0E8
:100C80000BF8FFF78AFFFFF79DFFFFF7B3FFFFF7B2
:100C9000D3FFFFF7A8FF80BD80B584B01048009057
:100CA000FFF75CFD0F480190FFF758FD37480290B1
:100CB000FFF71EFE5B480390FFF71AFE0098FFF750
:100CC00027FD0198FFF724FD0298FFF7C1FD039867
:100CD000FFF7BEFD1020FFF7E8FC04B080BDC04662
:100CE00000000A4000200A4080B582B001A900201F
:100CF0000870EE48FFF7B8FD0B2844D1FFE7EB483A
:100D0000FFF7ECFD01A908702148008800040028C5
:100D100038D4FFE71E4800884004002811D5FFE7BB
:100D200001A800780A2804D0FFE7194900200880AC
:100D300006E0174908880122D20310430880FFE724
:100D40001FE001A800780D2807D1FFE710490888A7
:100D5000012292031043088012E001990C48038895
:100D60000C4A13400C4AD1540188491C0180008868
:100D7000802804DBFFE7064900200880FFE7FFE743
:100D8000FFE7FFE700E0FFE702B080BD0080104012
:100D9000CC002020FF3F00004C00202080B582B016
:100DA00001A9002008701F48FFF75EFD0B280AD13B
:100DB000FFE71C48FFF792FD014601A8017000788B
:100DC000FFF7F4FD00E0FFE702B080BD80B582B020
:100DD000019068460180FFE76A461088411E118035
:100DE000002808D0FFE70198007800F007F8019884
:100DF000401C0190F0E702B080BD000080B582B0D9
:100E000001A90870FFE70748FFF75CFD002801D043
:100E1000FFE7F8E701A801780248FFF7BCFD02B040
:100E200080BDC0460000104080B582B0FFF726FFAD
:100E30000F20009000F00CF8009800F01FF80D2033
:100E4000019000F005F8019800F018F802B080BD9C
:100E500081B001466846017000214056002809D43F
:100E6000FFE7684601781F200140012088400249C1
:100E70000860FFE701B0704780E200E081B0014602
:100E80006846017000214056002809D4FFE76846F3
:100E900001781F2001400120884002490860FFE7D7
:100EA00001B0704700E100E08DB00C900B910AA9F1
:100EB0000020087009AA4E49118008AA4D491180E6
:100EC00007A9088006A90120087005A90870FFE796
:100ED0000B98411E0B91002857D0FFE70C98411C3E
:100EE0000C9100780AA9087006A80078C0070028AD
:100EF00026D0FFE70A9804A908700AA90020087004
:100F00000390FFE70398072819DCFFE704A800789F
:100F1000C00700280AD0FFE703990720401A0121E3
:100F200081400A9808430AA90870FFE704A90878D5
:100F300040080870FFE70398401C0390E2E7FFE7D2
:100F40000A9801020998484009A9088000200290E7
:100F5000FFE70298072817DCFFE709A800880004CC
:100F6000002807D5FFE7099840000899484009A9DB
:100F7000088004E00998400009A90880FFE7FFE71E
:100F80000298401C0290E4E7A2E705A80078C00799
:100F9000002826D0FFE7099801A9088009A90020A8
:100FA00008800090FFE700980F2819DCFFE701A8F0
:100FB0000088C00700280AD0FFE700990F20401AD8
:100FC000012181400998084309A90880FFE701A988
:100FD000088840080880FFE70098401C0090E2E77E
:100FE000FFE709A8008807A9098848400DB07047A5
:100FF000FFFF00000580000080B582B001900199DC
:101000007D20C000484300F003F802B080BD00001E
:1010100085B0049026200090049840010390174862
:1010200000680290FFE71548006801900198029956
:1010300088421FD0FFE701980299884207D2FFE754
:1010400002980199411A00984018009009E00C4854
:1010500000680199401A02994118009840180090C0
:10106000FFE70198029000980399884201D3FFE7B7
:1010700001E0FFE7D7E705B07047C04618E000E0A1
:1010800014E000E080B582B001900091FFE70748CE
:10109000FFF718FC002801D0FFE7F8E701A8017866
:1010A0000248FFF778FC019802B080BD0080104034
:1010B00080B582B000200190FFF7B6FE0A4800F02C
:1010C00097F80C20FFF758FDFFE708480078012843
:1010D00009D1FFE705490020087000F009F8322027
:1010E000FFF78AFFFFE7F0E72C1B00004B002020F2
:1010F00080B584B002A90020088001A908801548A5
:10110000417909028279891800910099C91D0091DD
:101110000099FFF7C9FE014603A8018000880E4927
:101120000988884201D0FFE712E00A4A907B00025A
:10113000517B401802A90880907C0002527C8218E2
:1011400001A8028009880288044800F051F8FFE7EE
:1011500004B080BD0A002020080020204C1B0000A5
:1011600080B582B021480190A52101700321417012
:10117000202181700121C1700021017141718171B3
:101180000221C1716E2101720921FFF71FFE019832
:101190001221FEF7C2FF02B080BDC04680B584B008
:1011A00003A801900021018010480290A52202703E
:1011B00003224270202282700222C27001714171AA
:1011C00081710721FFF770FE0199024602980A809B
:1011D0004978C171039901720921FFF7F7FD02985F
:1011E0001221FEF79AFF04B080BDC046CE00202039
:1011F0000FB410B503A9044B044A029800F0EEF8AE
:1012000010BC08BC04B01847851000000000202066
:101210002021020C01D010211046020A01D01046F4
:101220000839020901D01046091F820801D0104672
:10123000891E420801D0881E7047081A70470000B6
:1012400002E008C8121F08C1002AFAD17047000046
:101250007047000000000000002001E001C1121FE3
:10126000002AFBD170470000F0B51FB486B0099882
:10127000089A030D0021024314D05148514A18180E
:10128000504305141198012810981AD0281A401CB0
:1012900000264D4F4D49009601910490002812DA26
:1012A000444211E01198012449A3012801D110986A
:1012B000C1430698119A84600360C26041600BB01C
:1012C000F0BD4042E4E70446210500203F4A001CEF
:1012D00051410391029012E0E00707D032463B46AD
:1012E00001990098FFF726F80191009032463B469D
:1012F00010461946FFF71EF806460F466410002CEC
:10130000EAD10498039B0028029A0999089806DA02
:10131000FFF710F8019B009AFFF70CF805E0FFF7C4
:1013200071F8019B009AFFF76DF804460E46002203
:10133000284BFFF7FFF803D80020C043014607E021
:101340000022254B20463146FEF742FFFFF7D2F838
:10135000102409E0002C0ADB0A220023FEF707FF15
:10136000079B30321A55641E02460A43F2D11122FD
:10137000641C079B121B1C19119B012B03D001231A
:1013800008430ED10AE0084304D011201090002039
:10139000119077E71098151A6D1E0BE01098824295
:1013A00002DD00236D1C03E0824201DA00236D1E82
:1013B000002BEED0069811998260C16030C07EE7A4
:1013C00001FCFFFF104D0000000014400000F03F42
:1013D000300000000000F0430000E03FFFB597B090
:1013E0000646002518E2252877D100242746FD4926
:1013F000049400E00443761C32780120203A9040A7
:101400000842F7D130782A280ED0022230780146DF
:101410003039092916D804990A235943303940181C
:101420001443761C0490F1E7189802C804911890B0
:10143000002904DA012040030443484204900220BA
:101440000443761C30782E2814D10420044370788D
:10145000761C2A2809D11898761C80C8189009E0B3
:101460000A214F43303FC719761C30780146303986
:101470000929F5D930786C2810D006DC4C281AD010
:1014800068280ED06A2817D104E0742813D07A286F
:1014900012D110E00120400504430CE001210905B0
:1014A00001E0032109050C437178814203D1012039
:1014B00000052418761C761C3078119066280BD015
:1014C00013DC58287DD009DC00287BD04528F6D0D5
:1014D0004628F4D047281AD1A5E118E0632835D072
:1014E000642870D0652812D19DE170286CD008DC8A
:1014F0006728F1D069287BD06E280DD06F2806D1DF
:10150000BAE073282ED0752871D0782859D01A9A4D
:10151000199990476D1C7EE16002400F022809D0A6
:1015200003280DD00428189801680DD00D60001D07
:10153000189070E11898EA1701680D604A60F6E7A4
:10154000189801680D80F2E70D70F0E718986A4668
:1015500001781172001D18900020507202A80090AE
:10156000012005E0189802C8189000200091C0439F
:1015700061070DD5002101E00199491C0191B94293
:1015800012DA8142F8DB009A515C0029F4D10BE0B9
:10159000002101E00199491C01918142FADB019A85
:1015A0000099895C0029F5D1019904981A9B471A82
:1015B00021463846199A00F097FA019940194518C2
:1015C0000BE04FE02CE113E04EE00098009900782A
:1015D000491C00911A9A199990470198401E019050
:1015E000401CF2D1214638461A9B199A10E137E087
:1015F0000A200021009001916002410F022907D0CA
:10160000189A01CA1892C2179446032908D00AE012
:101610001898C01DC108C90005C91891944607E073
:1016200000B2C2179446042902D140B2C1178C46B9
:1016300000226146944506DA0A4600214042914163
:101640008C462D2102E0210504D52B216A46117319
:10165000012103E0E10701D02021F7E7029155E0E5
:101660000A200AE0102008E0102000900021042049
:1016700004430191082703E0082000210191009014
:101680006002410F022907D0189A01CA189200225D
:101690009446032908D008E01898C01DC108C90065
:1016A00005C91891944603E080B2042900D1C0B264
:1016B00000210291210729D51199702906D0009A9D
:1016C0001021019B4A401A4305D00EE040216A4692
:1016D0001173012108E06146014306D030216A46BA
:1016E00011731199517302210291009A0821019BF3
:1016F0004A401A430AD16146014301D1610705D529
:1017000030216A46117301217F1E029111995829D7
:1017100004D035A10E910DA90D910DE037A1F9E787
:101720006146019B009AFEF722FD0E9B8C469B5C56
:101730000D9A521E0D92137061460143F0D10D981F
:1017400005A9081A20300190600703D50120000484
:10175000844300E001270198874201DD381A00E048
:101760000020019900904118029809180498401A25
:101770000490E00306D421461A9B199A049800F0BD
:10178000B3F94519002706E003A81A9AC05D199914
:1017900090476D1C7F1C02988742F5DBE0030CD557
:1017A00021461A9B199A049800F09EF9451904E005
:1017B0001A9A3020199990476D1C0099481E009084
:1017C0000029F5DC08E00D980D990078491C0D9171
:1017D0001A9A199990476D1C0199481E0190002989
:1017E000F1DC63E10928010030313233343536371A
:1017F000383961626364656600000000303132335D
:1018000034353637383941424344454600000000FC
:1018100000F05AF94519761C3078002800D0E2E52E
:1018200028461BB0F0BD600700D406271898C01DDD
:10183000C108C90048680A680831C30FDB0718915E
:10184000190001D09CA108E0210501D59BA104E06D
:10185000E10701D09AA100E09AA1430011985B082A
:10186000109165280CD006DC452809D046281DD0EB
:10187000472841D141E0662818D067283CD13CE098
:101880000021112F01DB112000E0781C0191009054
:1018900008A911A8FFF7E8FC139905910021119AF6
:1018A00015927F1C12980197009150E00120C0070B
:1018B00003900120019008A9009711A8FFF7D4FC1C
:1018C000139A149905920022119B00921298159375
:1018D000059A0192002901D0104602E0791C4018B7
:1018E0000190381A01D5019804E04042401E009052
:1018F000781C0190C01B029043E0012F00DA012701
:101900000021112F01DD112000E0384601910090E7
:1019100008A911A8FFF7A8FC13990591119A0021B5
:10192000129815920091019721070CD40599B9429C
:1019300001DB019900E00191012904DD159A491E9E
:10194000515C302906D0B84201DA011D05DA0121C7
:10195000029115E00199491EEDE7002805DC009988
:10196000411800910199091A03E0019A411C914222
:1019700000DD01910099401A401C02900120C0072F
:101980000390200706D402990198814202DB0020CF
:10199000C043029000206946C87707AF0121039831
:1019A0000337C907884224D0022011902B201290BF
:1019B000039800280CDA404203902D20129007E093
:1019C0000A210398FEF7B4FB30317F1E0390397073
:1019D0001199481E11900029F2DC03980028EFD1DC
:1019E000791E129808703078202108404530BF1EBB
:1019F000387006A8C01BC01D0390109800780028FE
:101A000000D00120019941180298C01709180398C5
:101A100009180498401A401E0490E00306D4214699
:101A20001A9B199A049800F05FF8451910980078ED
:101A3000002803D01A9A199990476D1CE00324D509
:101A400021461A9B199A049800F04EF845191CE09B
:101A50000098002807DB00990598884203DD159857
:101A6000405C199901E0199930201A9A9047009822
:101A70006D1C401C00900298401E0290002804D16A
:101A80001A9A2E20199990476D1C0199481E0190B1
:101A90000029DDDC05E038781A9A7F1C19999047F7
:101AA0006D1C0399481E03900029F4DC21461A9B03
:101AB000199A0498ACE600002D0000002B000000ED
:101AC0002000000000000000F8B5044600251E4676
:101AD0001746880404D405E039462020B0476D1C21
:101AE000641EF9D52846F8BDFFB50446002581B02F
:101AF0001E46C80301D5302700E02027880404D5FE
:101B000005E038460399B0476D1C641EF9D5284698
:101B100005B0F0BD04000000180000000030000017
:101B200008000000180000000030000077616974B0
:101B3000696E6720666F722053444D31382073748C
:101B400061727420776F726B210D0A0064697320D3
:101B50003D2025646D6D09202C20737472656E67BD
:101B60007468203D2025640D0A000000901B0000D1
:101B7000000020200800000040120000981B000018
:101B800008002020D80200005812000000000000C9
:081B900000000000000000004D
:04000005000000C136
:00000001FF
